:020000040800F2
:1000000028340120E1020008E9020008EB020008A0
:10001000ED020008EF020008F102000800000000F5
:10002000000000000000000000000000290200089D
:10003000F5020008000000007D0200087D070008AE
:10004000FB020008FB020008FB020008FB0200089C
:10005000FB020008FB020008FB020008FB0200088C
:10006000FB020008FB020008FB020008FB0200087C
:10007000FB020008FB020008FB020008FB0200086C
:10008000FB020008FB020008FB020008FB0200085C
:10009000FB020008FB020008FB020008FB0200084C
:1000A000FB020008FB020008FB020008FB0200083C
:1000B000FB020008FB020008FB020008FB0200082C
:1000C000FB020008FB020008FB020008FB0200081C
:1000D000FB020008FB020008FB020008FB0200080C
:1000E000FB020008FB020008FB020008FB020008FC
:1000F000FB020008FB020008FB020008FB020008EC
:10010000FB020008FB020008FB020008FB020008DB
:10011000FB020008FB020008FB020008FB020008CB
:10012000FB020008FB020008FB020008FB020008BB
:10013000FB020008FB020008FB020008FB020008AB
:10014000FB020008FB020008FB020008FB0200089B
:10015000FB020008FB020008FB020008FB0200088B
:10016000FB020008FB020008FB020008FB0200087B
:10017000FB020008FB020008FB020008FB0200086B
:10018000FB020008FB02000800F002F800F03CF857
:100190000AA090E8000C82448344AAF10107DA45E2
:1001A00001D100F031F8AFF2090EBAE80F0013F0F8
:1001B000010F18BFFB1A43F0010318470025000088
:1001C00020250000103A24BF78C878C1FAD8520719
:1001D00024BF30C830C144BF04680C6070470000C1
:1001E0000023002400250026103A28BF78C1FBD840
:1001F000520728BF30C148BF0B6070471FB502F0DF
:1002000057FA1FBD10B510BD00F055F91146FFF7A4
:10021000F5FF00F023FB00F073F903B4FFF7F2FFE2
:1002200003BC00F07BF900002A4B19680868B0E8AD
:10023000F04F80F30988BFF36F8F4FF0000080F319
:10024000118870470000000006480068006880F3CD
:10025000088862B661B6BFF34F8FBFF36F8F00DFC0
:1002600000BF00BF08ED00E0DFF80C00016841F4BA
:1002700070010160704700BF88ED00E0EFF3098076
:10028000BFF36F8F134B1A681EF0100F08BF20EDDD
:10029000108A20E9F04F106008B44FF0500080F34E
:1002A0001188BFF34F8FBFF36F8F01F089FB4FF0C1
:1002B000000080F3118808BC19680868B0E8F04FA6
:1002C0001EF0100F08BFB0EC108A80F30988BFF34E
:1002D0006F8F704720000020EFF30580704700000B
:1002E0000948804709480047FEE7FEE7FEE7FEE7CA
:1002F000FEE7FEE7FEE7FEE7FEE7FEE70448054906
:10030000054A064B704700008D0700088901000868
:10031000282E0120283401202830012028300120F7
:10032000032A40F2308010F0030C00F0158011F821
:10033000013BBCF1020F624498BF11F801CB00F8F9
:10034000013B38BF11F8013BA2F1040298BF00F84D
:1003500001CB38BF00F8013B11F0030300F03080FF
:10036000083AC0F0088051F8043B083A51F804CB31
:10037000A0E80810F5E7121D5CBF51F8043B40F8F7
:10038000043BAFF30080D20724BF11F8013B11F802
:1003900001CB48BF11F8012B24BF00F8013B00F846
:1003A00001CB48BF00F8012B704702F0FF0343EA7E
:1003B000032242EA024200F037B8704770477047A4
:1003C00010B5203AC0F00B80B1E81850203AA0E8F0
:1003D0001850B1E81850A0E81850BFF4F5AF5FEA24
:1003E000027C24BFB1E81850A0E8185044BF18C9D7
:1003F00018C0BDE810405FEA827C24BF51F8043B7E
:1004000040F8043B08BF7047D20728BF31F8023BD1
:1004100048BF11F8012B28BF20F8023B48BF00F865
:10042000012B70474FF000020429C0F0128010F039
:10043000030C00F01B80CCF1040CBCF1020F18BFC0
:1004400000F8012BA8BF20F8022BA1EB0C0100F053
:100450000DB85FEAC17C24BF00F8012B00F8012B26
:1004600048BF00F8012B70474FF0000200B513465B
:1004700094469646203922BFA0E80C50A0E80C50C4
:10048000B1F12001BFF4F7AF090728BFA0E80C5075
:1004900048BF0CC05DF804EB890028BF40F8042B6E
:1004A00008BF704748BF20F8022B11F0804F18BFDB
:1004B00000F8012B7047754600F02CF8AE46050099
:1004C0006946534620F00700854618B020B5FFF76F
:1004D00015FFBDE820404FF000064FF000074FF039
:1004E00000084FF0000B21F00701AC46ACE8C00952
:1004F000ACE8C009ACE8C009ACE8C0098D4670475B
:1005000010B50446AFF300802046BDE81040FFF769
:1005100084BE000000487047C42D01200149182006
:10052000ABBEFEE726000200704710B500F05EF893
:1005300010BD000008E04FF48041044800F052F87C
:100540004FF4FA7001F090F8F5E700000010024057
:10055000F0B50A4600210023002400BF3DE001253C
:1005600005FA01F3156805EA03049C4234D10568D5
:100570004F000326BE40B543056015794E00B540D7
:100580000668354305601579012D02D01579022DD5
:1005900016D185684F000326BE40B5438560557966
:1005A0004E00B540866835438560456801268E401B
:1005B000B5434560456896798E40B6B2354345608F
:1005C000C5684F000326BE40B543C560D5794E00CF
:1005D000B540C6683543C560491C1029BFD3F0BD7E
:1005E0000183704742694A40426170471CB501214E
:1005F000102000F03DF801208DF8040000208DF857
:1006000006004FF47840009001208DF80700032089
:100610008DF8050069460E48FFF79AFF4FF4006118
:100620000B48FFF7DDFF4FF480510948FFF7D8FF73
:100630004FF400510648FFF7D3FF4FF480410448C0
:10064000FFF7CEFF4FF400410148FFF7C9FF1CBD83
:100650000010024008E04FF400410448FFF7C2FFD9
:100660004FF47A7001F000F8F5E700000010024046
:1006700029B1064A12680243044B1A6004E0034A97
:1006800012688243014B1A60704700003038024004
:100690000CB50020019000903448006840F4803090
:1006A0003249086000BF3148006800F40030009013
:1006B0000198401C0190009818B90198B0F5A04F1E
:1006C000F1D12A48006800F4003010B101200090F8
:1006D00001E0002000900098012846D123484030D6
:1006E000006840F08050214940310860204800688F
:1006F00040F440401E4908601C48083000681B490F
:10070000083108600846006840F400400860084668
:10071000006840F4A05008601648091F0860081FD0
:10072000006840F08070091F086000BF0F48006833
:1007300000F000700028F9D040F205700E49086002
:100740000A480830006820F00300084908310860B2
:100750000846006840F00200086000BF0348083007
:10076000006800F00C000828F8D10CBD00380240E9
:100770000070004008544007003C024010B501F0F2
:100780003DFD012801D001F0FFF910BD10B515485D
:10079000006840F47000134908601348006840F096
:1007A00001001149086000200F49083108600E4817
:1007B00000680E4908400C4908600D48091D086092
:1007C000081F006820F48020091F086000200649E7
:1007D0000C310860FFF75CFF4FF000600149803981
:1007E000086010BD88ED00E000380240FFFFF6FE13
:1007F000103000241CB500F01DFE0D48022100231E
:100800008022CDE900100BA10D4801F0C7FC0D4876
:10081000032100238022CDE900100BA10D4801F037
:10082000BDFC0D48006800F04DFF00F02DFE1CBD22
:100830000400002050696E6B4C45444F4E00000090
:100840005506000808000020426C75654C45444F71
:100850004E00000035050008000000201CB5FFF721
:1008600064FE0748012100234FF4FA72CDE900101D
:1008700004A1074801F092FC01F050F800201CBDD3
:10088000000000205461736B4372656174000000C6
:10089000F50700082DE9F04105460E461C4807689B
:1008A0001C480068001D00F07BFD50B91948006825
:1008B00090F82C1001208840174909688143164898
:1008C0000160681C38B936B112480168091D134827
:1008D00000F0A4FD1AE07C190E4800684460BC4298
:1008E00007D20C480168091D0D48006800F07CFD26
:1008F0000CE008480168091D0A48006800F074FD12
:1009000009480068844201D207480460BDE8F081CC
:100910003400002020000020380000208801002042
:1009200028000020240000205000002010B50446BC
:1009300000F080FD24480068401C234908602348DB
:10094000006840B9214804600846006801280DD1BC
:1009500000F0DEF90AE01E48006838B91B4800685C
:10096000C06AE16A884201D81848046019480068E2
:10097000401C1849086008460068206494F82C1050
:100980000120884014490968084313490860E16A56
:1009900001EB8101114A02EB8100211D00F03EFDB7
:1009A00000F072FD0A48006868B108480068C06A33
:1009B000E16A884207D24FF0805009490860BFF3CE
:1009C0004F8FBFF36F8F10BD30000020200000203C
:1009D0003C0000204C00002038000020D400002003
:1009E00004ED00E010B500F025FD10480068D0B916
:1009F0000F4800F0E9FC0F4800F0E6FC0C480E49F7
:100A000008600C480D49086000220C210A2001F002
:100A1000D5F8064908600846006820B108A10348D7
:100A2000006800F0E5FD00F02FFD10BD640000201F
:100A30009C010020B00100205C000020600000202C
:100A4000546D72510000000070B523E000F0B0FF5B
:100A50001348006808B9012000E00020054601F0B5
:100A600037FDBDB900F0E6FC0D48C068C468201D24
:100A700000F096FC0B480068401E0A4908600A48CE
:100A80000068401E0849086000F0FEFC204600F0A7
:100A900060F800BF044800680028D7D170BD00008E
:100AA00074010020300000202C00002070B50446A6
:100AB0000D46206C70B1216CE0680844E06061680C
:100AC000E068884201D32068E0602846226CE16833
:100AD000FFF726FC70BD2DE9F04104460F46154690
:100AE0004FF00008A66B206C40B9206860BB6068BE
:100AF00001F03EFC80460020606025E07DB939466B
:100B0000226CA068FFF70CFC216CA0680844A06070
:100B1000D4E90110884217D32068A06014E0394658
:100B2000226CE068FFF7FCFB216CE068401AE06093
:100B30002168E068884203D2216C6068401AE06056
:100B4000022D01D106B1761E701CA0634046BDE89F
:100B5000F08110B50446206B00F0B4FC204600F094
:100B6000B1FC10BD0146084A126812680AB9012298
:100B700000E000220A600A6822B9034A1268D268BB
:100B8000106800E0002070475C00002030B54FF492
:100B90009633174800F007042CB1C01D20F0070061
:100BA000134C041B1B1B0246124C22600024114DE7
:100BB0006C60D018083820F007000F4C206000242B
:100BC0000D4D2D686C600C4D2D682C601146441A3B
:100BD0004C60094C24680C60084D4C682C60084D32
:100BE0004C682C604FF00044064D2C6030BD000076
:100BF000C40100207C000020840000208C00002024
:100C0000880000209000002000BFFFF71DFF06486D
:100C100000680128F9D94FF0805004490860BFF3FB
:100C20004F8FBFF36F8FF0E7D400002004ED00E09A
:100C30002DE9F04106460D4617469846069C0DB92B
:100C4000246000E02760E66325640121204601F06E
:100C5000C3F884F84C80BDE8F0812DE9F05F82464E
:100C60000F4690469B460A9E0C9C4FEA8801A5229F
:100C7000206BFFF79AFBA8F10100216B01EB8009C3
:100C800029F0070909F0070008B9012000E0002059
:100C900050B900BF502080F31188BFF34F8FBFF3CE
:100CA0006F8F00BF00BFFEE7002507E0795D04F10C
:100CB00034004155785D00B902E06D1C0A2DF5D372
:100CC00000BF00213D200155052E00D30426E66219
:100CD000A6640020E064201D00F083FB04F11800EE
:100CE00000F07FFB2461C6F10500A0616462002072
:100CF000206584F854005A465146484600F03AFBB5
:100D000020600B9808B10B980460BDE8F09F0000CC
:100D100010B5002407E004EB84010F4A02EB8100C8
:100D200000F052FB641C052CF5D30C4800F04CFB82
:100D30000B4800F049FB0B4800F046FB0A4800F066
:100D400043FB0A4800F040FB044809490860044896
:100D50000849086010BD0000D400002038010020C0
:100D60004C01002060010020740100208801002057
:100D7000240000202800002010B50146164800E09D
:100D8000006803688B42FBD30246436813448B42DE
:100D900004D143684C682344436001460A464B68CB
:100DA00013440468A34211D10C4C03682468A34285
:100DB00008D04B680468646823444B6003681B6870
:100DC0000B6005E0054B1B680B6001E003680B60DE
:100DD000884200D0016010BD7C000020840000200B
:100DE0002DE9F04104460D4616461F464FF0000817
:100DF00065602461B5420CD8F01BA169884202D31A
:100E00004FF0010811E0211D0948006800F0ECFADC
:100E10000BE0BE4204D2BD4202D34FF0010804E011
:100E2000211D0448006800F0DFFA4046BDE8F0816B
:100E3000600000205C00002070B5054600F0FAFA62
:100E4000A86B08B9012400E0002400F01DFB204637
:100E500070BD70B5054600F0EDFAA86BE96B8842ED
:100E600001D1012400E0002400F00EFB204670BDFB
:100E7000F8B505460F4616480068C068C468201DCE
:100E800000F08EFAE06901281DD1A06941192B46B6
:100E90003A462046FFF7A4FFA8B1002003462A46A1
:100EA00001460090204601F0C1FB064656B900BF3E
:100EB000502080F31188BFF34F8FBFF36F8F00BFB7
:100EC00000BFFEE700BF2046616A8847F8BD00000A
:100ED0005C00002070B586B06AE00398002867DBEC
:100EE000059C606908B9012000E0002010B9201DB0
:100EF00000F056FA02A800F0BDF8054603980A284B
:100F000054D2DFE800F009050731334F06083234C8
:100F100000BF00BF00BF00BF0498A269811803464C
:100F20002A462046FFF75CFFE8B12046616A884701
:100F3000E069012817D1002000900498A1694218A7
:100F400000231946204601F071FB064656B900BF42
:100F5000502080F31188BFF34F8FBFF36F8F00BF16
:100F600000BFFEE700BF22E000BF20E000BF049802
:100F7000A061A06908B1012000E0002050B900BFC5
:100F8000502080F31188BFF34F8FBFF36F8F00BFE6
:100F900000BFFEE7A06941192B462A462046FFF70D
:100FA0001FFF04E0204600F08DFA00E000BF00BF04
:100FB00000231A4603A90448006800F02BFE00280D
:100FC0008BD106B070BD000064000020F8B5054666
:100FD0000C4600F0EDFC684600F04CF80646009820
:100FE00020BB44B9B54206D801F072FA3146284612
:100FF000FFF73EFF1CE03CB10E480068006808B9EE
:10100000012000E000200446A91B22460A4800688F
:1010100000F004FB01F05CFA50B94FF08050074932
:101020000860BFF34F8FBFF36F8F01E001F050FAFC
:10103000F8BD0000600000206400002004ED00E026
:101040000A490968096809B9012100E0002121B1B4
:101050004FF0FF31064A116006E004490968C9688B
:10106000C868034A416811607047000024000020EE
:101070005000002070B5044601F0D0F8054607483E
:101080000068854204D200F00BF80120206001E0E6
:101090000020206001480560284670BD6C000020DB
:1010A0002DE9F84332E024480068C068056822480A
:1010B0000068C068C468201D00F072F92046616AAB
:1010C0008847E069012821D1A0694619AE4207D9B5
:1010D00066602461211D1848006800F085F915E05C
:1010E000002003462A4601460090204601F09EFA61
:1010F000074657B900BF502080F31188BFF34F8FC8
:10110000BFF36F8F00BF00BFFEE700BF0A48006853
:10111000006808B9012000E000200028C3D006487C
:10112000D0F8008005480068034908600348C0F80B
:101130000080BDE8F88300005C0000206000002013
:101140000E480068401C08B9012000E0002050B99A
:1011500000BF502080F31188BFF34F8FBFF36F8F14
:1011600000BF00BFFEE700BF502080F31188BFF32F
:101170004F8FBFF36F8F00BF00BFFEE770000020EE
:1011800008B500BF6846FFF7EDFC0446204600990D
:10119000FFF71CFFFFF79EFEF4E770B5044600F072
:1011A00049F994F9455010E0606A08B9012000E05F
:1011B000002038B904F1240001F03EF918B100F024
:1011C000FBFA00E003E0681E45B2002DECDC00BF36
:1011D000FF2084F8450000F057F900F02BF994F94E
:1011E000445010E0206908B9012000E0002048B90F
:1011F00004F1100001F020F908B100F0DDFA681EDA
:1012000045B200E001E0002DECDC00BFFF2084F8D7
:10121000440000F039F970BD2DE9F04104464FF06B
:10122000000800F0C5FB4648006808B9FFF7AEFCAF
:1012300044480068204000286BD1D4B1083404F041
:101240000700B0B104F00700C0F10800044404F046
:10125000070008B9012000E0002050B900BF50206D
:1012600080F31188BFF34F8FBFF36F8F00BF00BFB4
:10127000FEE7002C4DD034480068844249D8334EF4
:101280003046056801E02E462D686868A04202D20B
:1012900028680028F7D12A480068854239D030688C
:1012A00000F10808286830606868001B102819D908
:1012B0002F1907F0070008B9012000E0002050B9FD
:1012C00000BF502080F31188BFF34F8FBFF36F8FA3
:1012D00000BF00BFFEE76868001B78606C6038469E
:1012E000FFF74AFD184968680968081A1649086036
:1012F0000846006816490968884203D21248006807
:10130000134908600F49686809680843686000204D
:10131000286001F0DDF808F0070008B9012000E0BE
:10132000002050B900BF502080F31188BFF34F8FC9
:10133000BFF36F8F00BF00BFFEE74046BDE8F081FE
:101340008400002090000020880000207C00002005
:101350008C0000200648006830B10549096801F199
:101360004C00C96C491C01600148006870470000CE
:1013700020000020001F4FF080730360001F21F049
:1013800001030360001F054B036014380260001F57
:101390006FF002030360203870470000411100081D
:1013A00001460A69D1E901309860D1E9010358602A
:1013B0005068884201D18868506000200861106838
:1013C000401E10601068704700F1080141604FF046
:1013D000FF31816000F10801C160016100210160FD
:1013E000704700210161704710B502460B685C1C14
:1013F0000CB9106907E002F1080000E04068446899
:1014000024689C42FAD944684C604C68A1608860AA
:1014100041600A611468641C146010BD42684A602F
:1014200093688B60936859609160086103685B1CE6
:101430000360704700BF502080F31188BFF34F8FC7
:10144000BFF36F8F00BF0E480068401C0C49086056
:1014500008460068012812D10A480068C0B208B9DD
:10146000012000E0002050B900BF502080F3118817
:10147000BFF34F8FBFF36F8F00BF00BFFEE7704712
:101480007000002004ED00E00D48006850B900BF76
:10149000502080F31188BFF34F8FBFF36F8F00BFD1
:1014A00000BFFEE706480068401E05490860084680
:1014B000006820B9002080F3118800BF00BF70478A
:1014C0007000002070B506463546002E3FD0083D1E
:1014D0002C461F4960680968084008B1012000E0F7
:1014E000002050B900BF502080F31188BFF34F8F08
:1014F000BFF36F8F00BF00BFFEE7206808B901206F
:1015000000E0002050B900BF502080F31188BFF3E5
:101510004F8FBFF36F8F00BF00BFFEE70C496068BD
:101520000968084098B1206888B909496068096865
:101530008843606000F03CFA064960680968084426
:10154000044908602046FFF717FC00F0C1FF70BD9A
:101550009000002088000020064800684FF47A714F
:10156000B0FBF1F0401E4FF0E02148610720086118
:10157000704700000C00002070B5FEF7ADFE044679
:10158000102C16D304F1E02090F8F05315480078A1
:10159000854201DB012000E0002050B900BF50204F
:1015A00080F31188BFF34F8FBFF36F8F00BF00BF71
:1015B000FEE70D48006800F4E0600C4909688842C5
:1015C00001D8012000E0002050B900BF502080F376
:1015D0001188BFF34F8FBFF36F8F00BF00BFFEE7CF
:1015E00070BD0000740000200CED00E078000020C9
:1015F000024600200BE0084B53F8303033B9064B5D
:1016000043F8301003EBC0035A6002E0401C082886
:10161000F1D300BF70470000940000202DE9F04195
:1016200005460E4617462C46FFF704FF94F9440082
:10163000401C10B9002084F8440094F94500401C77
:1016400010B9002084F84500FFF71EFFA06B28B9F1
:101650003A46314604F1240000F0D0F82046FFF766
:101660009CFDBDE8F081000070B504460025D4B1B2
:101670001248006808B9012000E0002050B900BFFE
:10168000502080F31188BFF34F8FBFF36F8F00BFDF
:1016900000BFFEE700F08CF900212046FFF7FAF8C2
:1016A00000F016FF05463DB94FF080500449086030
:1016B000BFF34F8FBFF36F8F70BD00005800002045
:1016C00004ED00E070B50546FFF7B4FE15B93048EB
:1016D000006800E028460446201DFFF761FE78B947
:1016E000E06A00EB80002B4951F8200040B994F8E3
:1016F0002C10012088402849096881432648016050
:10170000A06A18B104F11800FFF74AFE23480068E8
:10171000401C224908601E480068844209D1211DEE
:101720001F48FFF77BFE1F480068401C1D490860EA
:1017300009E01D480068401E1B4908602046FFF76D
:1017400008FAFFF77DFCFFF79FFE18480068E8B134
:101750000F480068844219D11548006808B9012073
:1017600000E0002050B900BF502080F31188BFF383
:101770004F8FBFF36F8F00BF00BFFEE74FF0805069
:101780000C490860BFF34F8FBFF36F8F70BD00002F
:1017900020000020D4000020380000204C00002051
:1017A000740100202C000020300000203C000020AC
:1017B0005800002004ED00E0012001490860704756
:1017C0004400002070B504460D4654B900BF5020B7
:1017D00080F31188BFF34F8FBFF36F8F00BF00BF3F
:1017E000FEE70548016818312046FFF7FDFD01219D
:1017F0002846FFF74FF870BD2000002070B5054661
:101800000E46144655B900BF502080F31188BFF32F
:101810004F8FBFF36F8F00BF00BFFEE70648016820
:1018200018312846FFF7FAFD0CB14FF0FF3621467C
:101830003046FFF72FF870BD2000002070B5054638
:101840002C46002D4BD02649E06A0968C96A8842B7
:1018500045D2A06900F0004028B921480068C06A5C
:10186000C0F10500A061E16A01EB81011D4A02EBB4
:1018700081016069884201D1012000E0002050B35D
:10188000201DFFF78DFD78B9E06A00EB8000154957
:1018900051F8200040B994F82C10012088401249DA
:1018A00009688143104801600D480068C06AE06221
:1018B00094F82C10012088400B49096808430A4914
:1018C0000860E16A01EB8101064A02EB8100211DFB
:1018D000FFF7A4FD03E002480068C06AE06270BD43
:1018E00020000020D40000203800002050B900BFA4
:1018F000502181F31188BFF34F8FBFF36F8F00BF6B
:1019000000BFFEE7034909680160034909684160B7
:101910007047000048000020340000201CB51D481E
:1019200000210B468222CDE900101BA11C4800F0CB
:1019300035FC0446012C02D100F04CFE0446012C7B
:1019400015D100BF502080F31188BFF34F8FBFF334
:101950006F8F00BF4FF0FF3012490860012012491D
:10196000086000201149086000F070F810E0601C69
:1019700008B1012000E0002050B900BF502080F3E2
:101980001188BFF34F8FBFF36F8F00BF00BFFEE71B
:101990001CBD00005400002049444C4500000000DC
:1019A000090C0008500000203C00002034000020FA
:1019B00002480068401C0149086070475800002038
:1019C0001D48006818B101201C49086032E0002061
:1019D0001A4908601A480068B0FA80F0C0F11F0187
:1019E00001EB8100174A52F8200008B1012000E005
:1019F000002050B900BF502080F31188BFF34F8FF3
:101A0000BFF36F8F00BF00BFFEE701EB81020D4BFC
:101A100003EB820042685268426000F108024368AA
:101A2000934202D14268526842604268D268064BD3
:101A30001A6000BF704700005800002044000020DA
:101A400038000020D4000020200000201CB54748AA
:101A500000684749884201D0012000E0002050B9C9
:101A600000BF502080F31188BFF34F8FBFF36F8FFB
:101A700000BF00BFFEE73D4800683D49491E88425F
:101A800001D0012000E0002050B900BF502080F3B9
:101A90001188BFF34F8FBFF36F8F00BF00BFFEE70A
:101AA0003449084600780190FF200A461070084625
:101AB000007800909DF8000000F0F0009DF80020F4
:101AC000904201D1012000E0002050B900BF502019
:101AD00080F31188BFF34F8FBFF36F8F00BF00BF3C
:101AE000FEE79DF8000000F05000234A1070072028
:101AF000224A106009E021480068401E1F4A106019
:101B00009DF800004006000E00909DF8000000F0D7
:101B100080008028EFD0194800680002174A106042
:101B20001046008800F4E0601060124A01981070BE
:101B30000E482030006840F470000C4920310860E5
:101B40000846006840F070400860FFF705FD00207F
:101B50000B490860FEF788FB0A48006840F04040E7
:101B600008490860FEF770FB00201CBD00ED00E096
:101B700071C20F4100E400E07400002078000020F2
:101B80007000002034EF00E010B500BF502080F35B
:101B90001188BFF34F8FBFF36F8F00BF00F044FB7E
:101BA00018B14FF080500449086000BF002080F356
:101BB000118800BF10BD000004ED00E02DE9F843DE
:101BC00005460E4690460DB1012000E0002050B9B8
:101BD00000BF502080F31188BFF34F8FBFF36F8F8A
:101BE00000BF00BFFEE70EB9002701E005FB06F7C6
:101BF00007F15000FFF710FB044644B104F150090F
:101C000043464A46314628460094FFF711F82046DD
:101C1000BDE8F8832DE9FF4782B005460E461F4612
:101C20004FF0000A2C4654B900BF502080F31188B1
:101C3000BFF34F8FBFF36F8F00BF00BFFEE70EB93A
:101C4000206C08B9012000E0002050B900BF5020EE
:101C500080F31188BFF34F8FBFF36F8F00BF00BFBA
:101C6000FEE700F0CBFA08B9049808B9012000E0BB
:101C7000002050B900BF502080F31188BFF34F8F70
:101C8000BFF36F8F00BF00BFFEE700BFFFF7D2FBBF
:101C9000D4F83890B9F1000F3DD0D4F80C8031461B
:101CA0002046FEF703FFDFB9A9F10100A063206819
:101CB00010B9FFF74FFB6060206908B9012000E010
:101CC000002010BB04F1100000F0B6FBE8B14FF0AB
:101CD000805040490860BFF34F8FBFF36F8F14E00F
:101CE000C4F80C80606A08B9012000E0002060B9E7
:101CF00004F1240000F0A0FB38B14FF080503549CA
:101D00000860BFF34F8FBFF36F8FFFF7BDFB01205C
:101D100006B0BDE8F087049818B9FFF7B5FB0020BE
:101D2000F6E7BAF1000F04D16846FFF7DFFD4FF088
:101D3000010AFFF7A9FBFFF73BFEFFF77BFB94F9D6
:101D40004400401C10B9002084F8440094F9450078
:101D5000401C10B9002084F84500FFF795FB04A94A
:101D6000684600F0D5F940BB2046FFF765F8F0B1B2
:101D7000206830B9FFF75EFB6068FFF75FFDFFF793
:101D800083FB04F124000499FFF71CFD2046FFF7B4
:101D900004FA00F09DFB00287FF478AF4FF08050EC
:101DA0000C490860BFF34F8FBFF36F8F6EE720467B
:101DB000FFF7F3F900F08CFB68E72046FFF7EDF939
:101DC00000F086FB2046FFF737F80028EED0002011
:101DD0009EE7000004ED00E070B505460E462C4677
:101DE00054B900BF502080F31188BFF34F8FBFF369
:101DF0006F8F00BF00BFFEE7FFF71CFBD4E90F1297
:101E0000206801FB020060600020A0632068A060E1
:101E1000E06B401E226C216800FB0210E060FF2096
:101E200084F8440084F845009EB9206908B901206F
:101E300000E00020A8B904F1100000F0FDFA80B124
:101E40004FF0805009490860BFF34F8FBFF36F8F89
:101E500007E004F11000FFF7B7FA04F12400FFF7E0
:101E6000B3FAFFF711FB012070BD000004ED00E0A4
:101E70002DE9FF4383B0064688461D464FF0000912
:101E8000344654B900BF502080F31188BFF34F8F00
:101E9000BFF36F8F00BF00BFFEE7B8F1000F01D1A5
:101EA000206C08B9012000E0002050B900BF50208C
:101EB00080F31188BFF34F8FBFF36F8F00BF00BF58
:101EC000FEE7022D02D1E06B012801D1012000E0E4
:101ED000002050B900BF502080F31188BFF34F8F0E
:101EE000BFF36F8F00BF00BFFEE700F087F908B9AE
:101EF000059808B9012000E0002050B900BF50202B
:101F000080F31188BFF34F8FBFF36F8F00BF00BF07
:101F1000FEE700BFFFF78EFAA06BE16B884201D3AA
:101F2000022D28D12A4641462046FEF7D4FD074619
:101F3000606A08B9012000E0002068B904F12400BB
:101F400000F07AFA88B14FF0805032490860BFF350
:101F50004F8FBFF36F8F08E03FB14FF080502D4996
:101F60000860BFF34F8FBFF36F8FFFF78DFA01202B
:101F700007B0BDE8F083059818B9FFF785FA00208F
:101F8000F6E7B9F1000F04D101A8FFF7AFFC4FF05D
:101F90000109FFF779FAFFF70BFDFFF74BFA94F908
:101FA0004400401C10B9002084F8440094F9450016
:101FB000401C10B9002084F84500FFF765FA05A918
:101FC00001A800F0A5F8F0B92046FEF742FFA0B145
:101FD00004F110000599FFF7F5FB2046FFF7DDF847
:101FE00000F076FA002895D14FF08050094908603A
:101FF000BFF34F8FBFF36F8F8CE72046FFF7CDF80D
:1020000000F066FA86E72046FFF7C7F800F060FAAE
:102010000020ADE704ED00E02DE9F05F07468A46B9
:1020200090461E463C4654B900BF502080F31188AC
:10203000BFF34F8FBFF36F8F00BF00BFFEE7BAF152
:10204000000F01D1206C08B9012000E0002050B938
:1020500000BF502080F31188BFF34F8FBFF36F8F05
:1020600000BF00BFFEE7022E02D1E06B012801D1C4
:10207000012000E0002050B900BF502080F31188FB
:10208000BFF34F8FBFF36F8F00BF00BFFEE7FFF7B7
:1020900073FA00BF5021EFF3118081F31188BFF371
:1020A0004F8FBFF36F8F00BF0546A06BE16B884277
:1020B00001D3022E23D194F945B032465146204631
:1020C000FEF709FD0BF1010088B9606A08B901202B
:1020D00000E0002080B904F1240000F0ADF958B10F
:1020E000B8F1000F08D00120C8F8000004E00BF19F
:1020F000010040B284F845004FF0010901E04FF0C3
:10210000000900BF85F3118800BF4846BDE8F09F75
:1021100070B504460D4654B900BF502080F31188B5
:10212000BFF34F8FBFF36F8F00BF00BFFEE755B9FE
:1021300000BF502080F31188BFF34F8FBFF36F8F24
:1021400000BF00BFFEE7FFF775F912480368286873
:10215000401C08B9002619E00F4920680968884228
:1021600004D06068984201D801260FE06068181A10
:102170002968884209D228686168591A401A28607B
:102180002046FFF7B3FB002600E00126FFF77CF9AD
:10219000304670BD34000020480000202DE9FF4F7C
:1021A00085B0804689461746DDE912ABB800FFF7D7
:1021B00033F8064656B15820FFF72EF804460CB106
:1021C000266304E03046FFF77DF900E000247CB18F
:1021D0000020CDE900ABCDE902403A4649464046F1
:1021E000089BFEF73AFD2046FEF7A0FB012501E023
:1021F0004FF0FF35284609B0BDE8F08F0549096862
:1022000009B9012005E00449096809B9022000E084
:10221000002070473C000020580000200149086859
:1022200070470000340000202DE9F0414FF0000815
:1022300044480068002877D143480068451C42485C
:10224000056015BB41480068006808B9012000E03E
:10225000002050B900BF502080F31188BFF34F8F8A
:10226000BFF36F8F00BF00BFFEE7384807683848EC
:102270000068364908603648076036480068401CE8
:1022800034490860FEF7DCFE00BF33480068854231
:102290003CD300BF2D480068006808B9012000E069
:1022A000002020B14FF0FF302B4908602DE0274877
:1022B0000068C068C4686668B54202D226480660F5
:1022C00023E0201DFFF76CF8A06A18B104F1180094
:1022D000FFF766F894F82C10012088401F49096820
:1022E00008431E490860E16A01EB81011C4A02EBC8
:1022F0008100211DFFF792F81A49E06A0968C96A4E
:102300008842C7D34FF00108C4E700BF15480068F2
:10231000C06A00EB8000124951F82000012801D961
:102320004FF0010805E0FFE70F480068401C0E4928
:1023300008600E48006808B14FF001084046BDE84B
:10234000F08100005800002034000020240000200C
:102350002800002048000020500000203800002005
:10236000D400002020000020400000204400002075
:1023700070B505462C460026002D55D02B48006828
:10238000844201D1012000E0002050B900BF50205C
:1023900080F31188BFF34F8FBFF36F8F00BF00BF73
:1023A000FEE7E06C50B900BF502080F31188BFF306
:1023B0004F8FBFF36F8F00BF00BFFEE7E06C401E82
:1023C000E064A16CE06A88422ED0E06C60BB201D06
:1023D000FEF7E6FF78B9E06A00EB8000144951F897
:1023E000200040B994F82C10012088401149096858
:1023F000814310480160A06CE062E06AC0F1050012
:10240000A06194F82C10012088400A49096808430B
:1024100008490860E16A01EB8101054A02EB81008D
:10242000211DFEF7FBFF0126304670BD2000002075
:10243000D40000203800002070B50646F068C4685B
:1024400054B900BF502080F31188BFF34F8FBFF302
:102450006F8F00BF00BFFEE704F11800FEF7A0FF7A
:1024600015480068A8B9201DFEF79AFF94F82C10B3
:102470000120884011490968084310490860E16A51
:1024800001EB81010E4A02EB8100211DFEF7C6FF20
:1024900004E004F118010B48FEF7C0FF0A49E06AA6
:1024A0000968C96A884204D90125012007490860E2
:1024B00000E00025284670BD5800002038000020AC
:1024C000D4000020600100202000002044000020F3
:1024D00070B5002400263648006850B900BF50206F
:1024E00080F31188BFF34F8FBFF36F8F00BF00BF22
:1024F000FEE7FEF79FFF2E480068401E2C4908604B
:102500000846006800284FD12A48006800284BD0B0
:1025100024E02948C068C46804F11800FEF740FFB1
:10252000201DFEF73DFF94F82C1001208840234920
:102530000968084321490860E16A01EB8101204AEA
:1025400002EB8100211DFEF769FF1E49E06A096860
:10255000C96A884202D301201B49086016480068F6
:1025600008B9012000E000200028D2D00CB1FEF70D
:1025700067FD1648056865B100BFFFF755FE10B14D
:102580000120114908606D1E002DF6D100200F4971
:1025900008600D48006838B1012630070C49086012
:1025A000BFF34F8FBFF36F8FFEF76EFF304670BDE6
:1025B000580000203000002060010020380000207A
:1025C000D400002020000020440000204000002013
:1025D00004ED00E01CB50024FEF704FA0E48006884
:1025E00058B10E48022100234FF48272CDE9001049
:1025F0000BA10D48FFF7D2FD044654B900BF50208F
:1026000080F31188BFF34F8FBFF36F8F00BF00BF00
:10261000FEE720461CBD000064000020680000208A
:10262000546D722053766300811100082DE9FE433A
:1026300004460D4616461F46DDF828804FF0000977
:1026400054B900BF502080F31188BFF34F8FBFF300
:102650006F8F00BF00BFFEE71448006810B30095FD
:1026600001960294062D15DAFFF7C8FD022808D15D
:102670000023424669460D480068FFF7F9FB814692
:1026800010E000231A46694608480068FFF7F0FB8F
:10269000814607E000233A46694604480068FFF790
:1026A000BBFC81464846BDE8FE8300006400002074
:1026B0004FF04070E1EE100A70470000DC26000881
:1026C0000000002094000000C401000870270008EA
:1026D0009400002094330100E00100080000000095
:1026E0000000000000000000007A030A0000000063
:1026F00000000000010203040607080900000000B2
:1027000000000000000000000000000000000000C9
:1027100000000000000000000000000000000000B9
:1027200000000000000000000000000000000000A9
:102730000000000000000000000000000000000099
:10274000000000000000000000000000AAAAAAAAE1
:102750000000000000000000000000000000000079
:102760000000000000000000000000000000000069
:040000050800018965
:00000001FF
